:10000000E01D0120F9B60000DDF20400CDB60000CD
:10001000CDB60000CDB60000CDB60000CDB60000D4
:1000200000000000000000000000000051AF0000D0
:10003000CDB6000000000000F5AE0000CDB6000017
:10004000D1AF0000D1AF0000D1AF0000D1AF0000B0
:10005000D1AF0000D1AF0000D1AF0000D1AF0000A0
:10006000D1AF0000D1AF0000D1AF0000D1AF000090
:10007000D1AF0000D1AF0000D1AF0000D1AF000080
:10008000D1AF0000D1AF0000D1AF0000D1AF000070
:10009000D1AF0000D1AF0000D1AF0000D1AF000060
:1000A000D1AF0000D1AF0000D1AF0000D1AF000050
:1000B000D1AF0000D1AF0000D1AF0000D1AF000040
:1000C000D1AF0000D1AF0000D1AF0000D1AF000030
:1000D000D1AF0000D1AF0000D1AF0000D1AF000020
:1000E000D1AF0000D1AF0000D1AF0000D1AF000010
:1000F000D1AF0000D1AF0000D1AF0000D1AF000000
:10010000D1AF0000D1AF0000D1AF0000D1AF0000EF
:10011000D1AF0000D1AF0000D1AF0000D1AF0000DF
:10012000D1AF0000D1AF0000D1AF0000D1AF0000CF
:10013000D1AF0000D1AF0000D1AF0000D1AF0000BF
:10014000D1AF0000D1AF0000D1AF0000D1AF0000AF
:04015000D1AF00002B
:04015400FFFFFFFFAB
:1001580081F0004102E000BF83F0004330B54FEA70
:1001680041044FEA430594EA050F08BF90EA020FDD
:100178001FBF54EA000C55EA020C7FEA645C7FEA70
:10018800655C00F0E2804FEA5454D4EB5555B8BF93
:100198006D420CDD2C4480EA020281EA030382EA04
:1001A800000083EA010180EA020281EA0303362D96
:1001B80088BF30BD11F0004F4FEA01314FF4801C69
:1001C8004CEA113102D0404261EB410113F0004F7B
:1001D8004FEA03334CEA133302D0524263EB430332
:1001E80094EA050F00F0A780A4F10104D5F1200ED0
:1001F8000DDB02FA0EFC22FA05F2801841F100012B
:1002080003FA0EF2801843FA05F359410EE0A5F1FE
:1002180020050EF1200E012A03FA0EFC28BF4CF02F
:10022800020C43FA05F3C01851EBE37101F00045E5
:1002380007D54FF0000EDCF1000C7EEB00006EEBF2
:100248000101B1F5801F1BD3B1F5001F0CD349087C
:100258005FEA30004FEA3C0C04F101044FEA4452D3
:1002680012F5800F80F09A80BCF1004F08BF5FEA5A
:10027800500C50F1000041EB045141EA050130BD3A
:100288005FEA4C0C404141EB0101013C28BFB1F54C
:10029800801FE9D291F0000F04BF01460020B1FA97
:1002A80081F308BF2033A3F10B03B3F120020CDA6A
:1002B8000C3208DD02F1140CC2F10C0201FA0CF048
:1002C80021FA02F10CE002F11402D8BFC2F1200CAD
:1002D80001FA02F120FA0CFCDCBF41EA0C01904063
:1002E800E41AA2BF01EB0451294330BD6FEA0404AC
:1002F8001F3C1CDA0C340EDC04F11404C4F1200297
:1003080020FA04F001FA02F340EA030021FA04F3A8
:1003180045EA030130BDC4F10C04C4F1200220FAFF
:1003280002F001FA04F340EA0300294630BD21FA3D
:1003380004F0294630BD94F0000F83F4801306BF03
:1003480081F480110134013D4EE77FEA645C18BFF7
:100358007FEA655C29D094EA050F08BF90EA020F8E
:1003680005D054EA000C04BF1946104630BD91EA86
:10037800030F1EBF0021002030BD5FEA545C05D189
:100388004000494128BF41F0004130BD14F58004C8
:100398003CBF01F5801130BD01F0004545F0FE413C
:1003A80041F470014FF0000030BD7FEA645C1ABF71
:1003B800194610467FEA655C1CBF0B46024650EAA8
:1003C800013406BF52EA033591EA030F41F40021D4
:1003D80030BD00BF90F0000F04BF0021704730B55A
:1003E8004FF4806404F132044FF000054FF000012F
:1003F80050E700BF90F0000F04BF0021704730B5F0
:100408004FF4806404F1320410F0004548BF4042C4
:100418004FF000013EE700BF42004FEAE2014FEA19
:1004280031014FEA02701FBF12F07F4393F07F4FF4
:1004380081F06051704732F07F4208BF704793F0F7
:100448007F4F04BF41F40021704730B54FF460740A
:1004580001F0004521F000411CE700BF50EA01020D
:1004680008BF704730B54FF000050AE050EA0102B6
:1004780008BF704730B511F0004502D5404261EB26
:1004880041014FF4806404F132045FEA915C3FF467
:10049800D8AE4FF003025FEADC0C18BF03325FEA04
:1004A800DC0C18BF033202EBDC02C2F1200300FAB5
:1004B80003FC20FA02F001FA03FE40EA0E0021FADA
:1004C80002F11444BDE600BF70B54FF0FF0C4CF4C8
:1004D800E06C1CEA11541DBF1CEA135594EA0C0F7A
:1004E80095EA0C0F00F0DEF82C4481EA030621EAB5
:1004F8004C5123EA4C5350EA013518BF52EA0335F0
:1005080041F4801143F4801338D0A0FB02CE4FF0A1
:100518000005E1FB02E506F00042E0FB03E54FF0D1
:100528000006E1FB03569CF0000F18BF4EF0010EC9
:10053800A4F1FF04B6F5007F64F5407404D25FEAC5
:100548004E0E6D4146EB060642EAC62141EA555178
:100558004FEAC52040EA5E504FEACE2EB4F1FD0CBA
:1005680088BFBCF5E06F1ED8BEF1004F08BF5FEA38
:10057800500E50F1000041EB045170BD06F00046EA
:1005880046EA010140EA020081EA0301B4EB5C0497
:10059800C2BFD4EB0C0541EA045170BD41F480118F
:1005A8004FF0000E013C00F3AB8014F1360FDEBFB4
:1005B800002001F0004170BDC4F10004203C35DA90
:1005C8000C341BDC04F11404C4F1200500FA05F313
:1005D80020FA04F001FA05F240EA020001F00042B4
:1005E80021F0004110EBD37021FA04F642EB06012A
:1005F8005EEA430E08BF20EAD37070BDC4F10C0454
:10060800C4F1200500FA04F320FA05F001FA04F217
:1006180040EA020001F0004110EBD37041F1000103
:100628005EEA430E08BF20EAD37070BDC4F120050E
:1006380000FA05F24EEA020E20FA04F301FA05F276
:1006480043EA020321FA04F001F0004121FA04F21E
:1006580020EA020000EBD3705EEA430E08BF20EAEE
:10066800D37070BD94F0000F0FD101F00046400028
:1006780041EB010111F4801F08BF013CF7D041EAAA
:10068800060195F0000F18BF704703F000465200AE
:1006980043EB030313F4801F08BF013DF7D043EA7F
:1006A8000603704794EA0C0F0CEA135518BF95EA35
:1006B8000C0F0CD050EA410618BF52EA4306D1D1BC
:1006C80081EA030101F000414FF0000070BD50EADB
:1006D800410606BF1046194652EA430619D094EA65
:1006E8000C0F02D150EA013613D195EA0C0F05D14F
:1006F80052EA03361CBF104619460AD181EA0301A3
:1007080001F0004141F0FE4141F470014FF000005A
:1007180070BD41F0FE4141F4780170BD70B54FF0F5
:10072800FF0C4CF4E06C1CEA11541DBF1CEA135575
:1007380094EA0C0F95EA0C0F00F0A7F8A4EB050457
:1007480081EA030E52EA03354FEA013100F088804E
:100758004FEA03334FF0805545EA131343EA126317
:100768004FEA022245EA111545EA10654FEA0026CC
:100778000EF000419D4208BF964244F1FD0404F585
:10078800407402D25B084FEA3202B61A65EB0305E1
:100798005B084FEA32024FF480104FF4002CB6EB9E
:1007A800020E75EB030E22BFB61A754640EA0C001E
:1007B8005B084FEA3202B6EB020E75EB030E22BF5E
:1007C800B61A754640EA5C005B084FEA3202B6EB9F
:1007D800020E75EB030E22BFB61A754640EA9C005E
:1007E8005B084FEA3202B6EB020E75EB030E22BF2E
:1007F800B61A754640EADC0055EA060E18D04FEAEC
:10080800051545EA16754FEA06164FEAC30343EA8B
:1008180052734FEAC2025FEA1C1CC0D111F4801F58
:100828000BD141EA00014FF000004FF0004CB6E751
:1008380011F4801F04BF01430020B4F1FD0C88BFF0
:10084800BCF5E06F3FF6AFAEB5EB030C04BFB6EBFB
:10085800020C5FEA500C50F1000041EB045170BDEE
:100868000EF0004E4EEA113114EB5C04C2BFD4EB1B
:100878000C0541EA045170BD41F480114FF0000E9F
:10088800013C90E645EA060E8DE60CEA135594EA1B
:100898000C0F08BF95EA0C0F3FF43BAF94EA0C0F1E
:1008A8000AD150EA01347FF434AF95EA0C0F7FF493
:1008B80025AF104619462CE795EA0C0F06D152EAE7
:1008C80003353FF4FDAE1046194622E750EA4106CB
:1008D80018BF52EA43067FF4C5AE50EA41047FF4DC
:1008E8000DAF52EA43057FF4EBAE12E74FF0FF3C41
:1008F80006E000BF4FF0010C02E000BF4FF0010C12
:100908004DF804CD4FEA410C7FEA6C5C4FEA430C8A
:1009180018BF7FEA6C5C1BD001B050EA410C0CBFD9
:1009280052EA430C91EA030F02BF90EA020F00203B
:10093800704710F1000F91EA030F58BF994208BFA2
:1009480090422CBFD8176FEAE37040F0010070475F
:100958004FEA410C7FEA6C5C02D150EA013C07D1B6
:100968004FEA430C7FEA6C5CD6D152EA033CD3D001
:100978005DF8040B704700BF8446104662468C46FB
:100988001946634600E000BF01B5FFF7B7FF00282E
:1009980048BF10F1000F01BD4DF808EDFFF7F4FF57
:1009A8000CBF012000205DF808FB00BF4DF808EDE2
:1009B800FFF7EAFF34BF012000205DF808FB00BF05
:1009C8004DF808EDFFF7E0FF94BF012000205DF827
:1009D80008FB00BF4DF808EDFFF7CEFF94BF0120DC
:1009E80000205DF808FB00BF4DF808EDFFF7C4FFD5
:1009F80034BF012000205DF808FB00BF4FEA410C1E
:100A08007FEA6C5C02D150EA013C0AD14FEA430C00
:100A18007FEA6C5C02D152EA033C02D14FF000003D
:100A280070474FF0010070474FEA410212F500127B
:100A380015D211D56FF47873B3EB625212D94FEA1D
:100A4800C12343F0004343EA505311F0004F23FA07
:100A580002F018BF404270474FF00000704750EA5C
:100A6800013005D111F0004008BF6FF00040704719
:100A78004FF00000704700BF4A0011D212F5001273
:100A880011D20DD56FF47873B3EB62520ED44FEADE
:100A9800C12343F0004343EA505323FA02F070475E
:100AA8004FF00000704750EA013002D14FF0FF309C
:100AB80070474FF0000070477BB972B90029BEBF7C
:100AC80000204FF0004106E008BF00281CBF6FF06F
:100AD80000414FF0FF3000F075B8ADF1080C6DE93A
:100AE80004CE002909DB002B1ADB00F022FFDDF819
:100AF80004E0DDE9022304B07047404261EB4101A4
:100B0800002B1BDB00F015FFDDF804E0DDE9022314
:100B180004B0404261EB4101524263EB430370472A
:100B2800524263EB430300F004FFDDF804E0DDE923
:100B3800022304B0404261EB41017047524263EB2B
:100B4800430300F0F6FEDDF804E0DDE9022304B01B
:100B5800524263EB4303704753B94AB9002908BFAF
:100B680000281CBF4FF0FF314FF0FF3000F02AB8CB
:100B7800ADF1080C6DE904CE00F0DBFEDDF804E011
:100B8800DDE9022304B07047D0B500220B4B0646BE
:100B98000F46FFF799FCFFF76FFF0446FFF71AFCB3
:100BA8000022074BFFF790FC02460B4630463946B9
:100BB800FFF7D2FAFFF760FF2146D0BD0000F03DF5
:100BC8000000F041704700BF2DE9F14F03F11C040C
:100BD80002EB840C4FEA930B8A68CB680868496873
:100BE80000F046F93CE9F0006040694072407B4003
:100BF8000BF1060E4EE083EA134480EA134582EABD
:100C0800134746BA96EA3444604000F00F1684EA67
:100C1800063420F00F1684EA161054BA94EA010636
:100C2800724002F00F1486EA043622F00F1486EAA6
:100C380014124CBA6540694001F00F1485EA043576
:100C480021F00F1485EA14115CBA67407B4003F069
:100C58000F1487EA043723F00F1487EA141344BAF1
:100C680044404DBA4D4056BA56405FBA5F4087EA95
:100C7800174886EA174B84EA17464FEA38488BEA42
:100C88001B4485EA1B4788EA1B4580EA34406940D3
:100C980072407B4000F0703400F0803500F00F3077
:100CA80040EA440040EAD50080EA900404F0332486
:100CB80080EA8400604001F0703401F0803501F072
:100CC8000F3141EA440141EAD50181EA910404F077
:100CD800332481EA8401614002F0703402F08035E7
:100CE80002F00F3242EA440242EAD50282EA920452
:100CF80004F0332482EA8402624003F0703403F083
:100D0800803503F00F3343EA440343EAD50383EA0B
:100D1800930404F0332483EA84036340C943DB4328
:100D280081EA000483EA044686EA020183EA014371
:100D380082EA334583EA14435C4084EA00077FEA89
:100D4800040A8AEA024A8AEA010B87EA11488AEA0F
:100D5800374A80EA060181EA1A418AEA030A04EA64
:100D68000A00454088EA040707EA0B0041408AEA7E
:100D78000B0608EA060084EA34428AEA3A4602EA9E
:100D8800060358404540414087EA37438BEA3B40D9
:100D980003EA000985EA090582EA0309464006EAEA
:100DA8000906714085EA010005EA3546464006EA2B
:100DB800314181EA304181EA364606EA304686EA20
:100DC800354634400F4086EA010508EA050886EAF8
:100DD8003640024088EA020881EA314213405C400A
:100DE80080EA020309EA030987EA0907674088EAF3
:100DF800040806EA0A0601EA0B018AEA0B04254000
:100E08008AEA3A44204045408BEA3B4B02EA0B020F
:100E1800564084EA0B04234059406E40694087EAF3
:100E2800364080EA384080EA060380EA104481EAC6
:100E3800134585EA344585EA17427D4082EA354103
:100E480080EA05403CE9F0006040694072407B4020
:100E5800BEF1010E3FF6CFAE20BC00F05FF828606F
:100E68006960AA60EB60BDE8F08F00BF00F000BACF
:100E780080EA101404F0F01480EA0410604081EA5B
:100E8800111404F0F01481EA0411614082EA12148A
:100E980004F0F01482EA0412624083EA131404F0A6
:100EA800F01483EA0413634080EA102404F47F44B6
:100EB80080EA0420604081EA112404F47F4481EA36
:100EC8000421614082EA122404F47F4482EA042265
:100ED800624083EA132404F47F4483EA04236340D2
:100EE80081EA500404F0553480EA4400614083EA02
:100EF800520404F0553482EA4402634082EA9004C2
:100F080004F0333480EA8400624083EA910404F0F8
:100F1800333481EA84016340704700BF82EA900459
:100F280004F0333480EA8400624083EA910404F0D8
:100F3800333481EA8401634081EA500404F0553473
:100F480080EA4400614083EA520404F0553482EA9E
:100F58004402634080EA102404F47F4480EA0420B9
:100F6800604081EA112404F47F4481EA042161404D
:100F780082EA122404F47F4482EA0422624083EA6B
:100F8800132404F47F4483EA0423634080EA1014A2
:100F980004F0F01480EA0410604081EA111404F0AF
:100FA800F01481EA0411614082EA121404F0F0148A
:100FB80082EA0412624083EA131404F0F01483EA0C
:100FC80004136340704700BF2DE9F14F94464FEA80
:100FD800930B8A68CB6808684968FFF749FF0BF1EB
:100FE800060E33E083EA134480EA134582EA134786
:100FF80046BA96EA3444604000F00F1684EA063494
:1010080020F00F1684EA161054BA94EA01067240CA
:1010180002F00F1486EA043622F00F1486EA14123E
:101028004CBA6540694001F00F1485EA043521F097
:101038000F1485EA14115CBA67407B4003F00F1463
:1010480087EA043723F00F1487EA1413BCE8F0008A
:101058006040694072407B4000F0E03400F0103599
:1010680000F00F3040EA540040EAC50080EA9004DE
:1010780004F0332480EA8400604001F0E03401F099
:10108800103501F00F3141EA540141EAC50181EA06
:10109800910404F0332481EA8401614002F0E034D1
:1010A80002F0103502F00F3242EA540242EAC50259
:1010B80082EA920404F0332482EA8402624003F054
:1010C800E03403F0103503F00F3343EA540343EAE6
:1010D800C50383EA930404F0332483EA840363405A
:1010E80081EA324787EA134581EA354690EA0604E1
:1010F80084EA034B82EA1B4280EA044484EA0544FA
:1011080083EA144A85EA14448BEA044B84EA374498
:1011180081EA0B4181EA164104EA0A00454082EA65
:1011280004082BEA080041408AEA0B0602EA060096
:1011380084EA34438AEA3A4603EA06077840454097
:10114800414088EA38478BEA3B4007EA000985EACC
:10115800090583EA0709464006EA0906714085EA57
:10116800010005EA3546464006EA314181EA304148
:1011780081EA364606EA304686EA3546344008EAC9
:10118800010886EA01052A4086EA364003405A40AB
:1011980081EA31431F407C4080EA030709EA0709D6
:1011A80088EA0908544088EA020806EA0A0601EAB9
:1011B8000B018AEA0B0215408AEA3A421040454080
:1011C8008BEA3B4003405E404240174079404D4027
:1011D8004E40E443F64386EA18435D4085EA0540FD
:1011E80083EA134386EA034183EA384284EA1143D7
:1011F80083EA04435FEA3343BEF1010E3FF6F2AEE1
:101208001ED4BCE8F0006040694072407B4020BCBE
:10121800FFF784FE28606960AA60EB60BDE8F08F84
:101228002DE9E0414FF2F00280EA1031114080EAE6
:101238000130484041088208C3084FF0000E4FE7CC
:1012480000F0113001F0113102F0113203F01133C6
:1012580040EA410040EA820040EAC3004FF2F0024F
:1012680080EA1031114080EA01304840BDE8E08151
:101278002DE9F04F02F11C050646074600EB8508EC
:1012880051F8040B043A46F8040BF9D14FF0010C5D
:10129800FFF7C6FF5FEA302080EA0C001ECF41400E
:1012A8004A4053405C401EC62000464517D04FEACE
:1012B8004C0C1CF4807F18BFACF1E50C2C2DE7D04A
:1012C8003C2D06D1FFF7ACFF06CF41404A4006C689
:1012D800100006CF41404A4006C61000D8E736E95C
:1012E8000F00FFF7C5FD043D86E80F00F7D1BDE804
:1012F800F08F00BF2DE9F04FB0E8FE0783B02DE96D
:10130800010790E8005F4FF00A0006900198DB198A
:101318009CEA030C18EB3C4897EA080713EB375391
:1013280093EA3C4C18EB3C6898EA375724189EEA35
:10133800040E19EB3E4990EA090014EB305494EA84
:101348003E4E19EB3E6999EA3050CDE90489DDE952
:10135800028949199AEA010A18EB3A4895EA0805F8
:1013680011EB355191EA3A4A18EB3A6898EA355543
:1013780092199BEA020B19EB3B4996EA090612EB14
:10138800365292EA3B4B19EB3B6999EA365613EB16
:10139800706393EA3B6B18EB3B4898EA706013EB79
:1013A800305393EA3B4B5FEA3B6B18EB0B0898EA28
:1013B80030505FEA706014EB756494EA3C6C19EB8A
:1013C8003C4999EA756514EB355494EA3C4C5FEA5C
:1013D8003C6C19EB0C0999EA35555FEA7565CDE95E
:1013E8000289DDE9048911EB766191EA3E6E18EB1A
:1013F8003E4898EA766611EB365191EA3E4E5FEA2E
:101408003E6E18EB0E0898EA36565FEA766612EBDF
:10141800776292EA3A6A19EB3A4999EA776712EBE6
:10142800375292EA3A4A5FEA3A6A19EB0A0999EAA4
:1014380037575FEA77670190069801387FF465AF00
:1014480001BC80E8005FBDE8000700E9FE0703B0C3
:10145800BDE8F08F30B44FF0000310F8014B11F8DD
:10146800015B013A84EA050443EA0403F5D1A3F1D8
:1014780001034FEAD37030BC704700BF4FF0000340
:1014880010F8012B013943EA0203F9D1A3F1010352
:101498004FEAD370704700BF30B411F8014B12F80F
:1014A800015B6C4000F8014B013BF6D130BC704742
:1014B8002DE9F14FF8C892E8005E19EB03095AEBE1
:1014C800040A5BEB050B5CEB060C4EEB070E91E890
:1014D800E001A9FB0502AAFB0543E9FB6624EAFB38
:1014E8006634A9FB0765E9FB6845B1E80003EBFB37
:1014F8006836ECFB6846EEFB6856ABFB0987ECFBED
:101508006957EEFB696791E80202EAFB6148EBFB69
:101518006158ECFB6168EEFB61784FF00001EAFB73
:101528000951EBFB6961ECFB6971EEFB69814FF4D2
:10153800A03C4FEA154949EA06495FF0000AE9FB71
:101548000C0A4FEA164646EA0746E6FB6C2A4FEABB
:10155800174747EA0847E7FB6C3A4FEA184848EA52
:101568000148E8FB6C4AADB25544AF0805F00305E5
:1015780007EB8707C01952F1000153F1000254F13B
:10158800000345F1000420BC1FC5BDE8F08F00BF73
:1015980030B490E83C10511D53F1000154F10001A2
:1015A80055F100014CF100014FEA9101494201F067
:1015B8000501521853F1000354F1000455F10005D8
:1015C8004CF1000C0CF0030C80E83C1030BC704768
:1015D8002DE9F04F90E8F00F00F140004FF0040EB5
:1015E80059E0F0B4826BC36B04680525242687593B
:1015F8003C444FEA724787EAF24787EA92273C441D
:1016080042684FEAF21787EAB24787EAD2073C44B2
:1016180040F8044B032D08BF6FF01B0687593A4466
:101628004FEA734787EAF34787EA93273A444368C0
:101638004FEAF31787EAB34787EAD3073A4440F8F3
:10164800042B87593B444FEA744787EAF44787EAF3
:1016580094273B4444684FEAF41787EAB44787EA7B
:10166800D4073B4440F8043B013DC0D1A0F13C0005
:10167800076A3C444FEA724787EAF24787EA9227AB
:101688003C4402684FEAF21787EAB24787EAD20772
:101698003C44C463F0BC4FF0020288EA781C8CEA30
:1016A800F84C0BEBBC1C8AEA090303EA080383EA3B
:1016B8000A039C4450F8043B9C4451F8043B9C4466
:1016C800674444EA050B0BEA060B04EA05034BEAF8
:1016D800030BE34484EAF42383EA34530BEBB30BA0
:1016E80087EA771C8CEAF74C0AEBBC1C89EA0803EA
:1016F80003EA070383EA09039C4450F8043B9C442B
:1017080051F8043B9C4466444BEA040A0AEA050A79
:101718000BEA04034AEA030AE2448BEAFB2383EA5E
:101728003B530AEBB30A86EA761C8CEAF64C09EBC3
:10173800BC1C88EA070303EA060383EA08039C44FF
:1017480050F8043B9C4451F8043B9C4465444AEAE5
:101758000B0909EA04090AEA0B0349EA0309E14407
:101768008AEAFA2383EA3A5309EBB30985EA751C36
:101778008CEAF54C08EBBC1C87EA060303EA050370
:1017880083EA07039C4450F8043B9C4451F8043B0B
:101798009C44644449EA0A0808EA0B0809EA0A036F
:1017A80048EA0308E04489EAF92383EA395308EB55
:1017B800B30884EA741C8CEAF44C07EBBC1C86EA78
:1017C800050303EA040383EA06039C4450F8043B38
:1017D8009C4451F8043B9C44E34448EA090707EA5F
:1017E8000A0708EA090347EA0307674488EAF8236F
:1017F80083EA385307EBB3078BEA7B1C8CEAFB4C74
:1018080006EBBC1C85EA040303EA0B0383EA050321
:101818009C4450F8043B9C4451F8043B9C44E244EB
:1018280047EA080606EA090607EA080346EA03063D
:10183800664487EAF72383EA375306EBB3068AEA56
:101848007A1C8CEAFA4C05EBBC1C84EA0B0303EA0D
:101858000A0383EA04039C4450F8043B9C4451F86F
:10186800043B9C44E14446EA070505EA080506EA04
:10187800070345EA0305654486EAF62383EA3653F7
:1018880005EBB30589EA791C8CEAF94C04EBBC1C1E
:101898008BEA0A0303EA090383EA0B039C4450F822
:1018A800043B9C4451F8043B9C44E04445EA06044C
:1018B80004EA070405EA060344EA0304644485EAE3
:1018C800F52383EA355304EBB304013A7FF4E5AE1C
:1018D800A0F14000BEF1010E7FF483AEA0F1400CF0
:1018E8009CE80F00001949199219DB19ACE80F00A0
:1018F8009CE80F004044494452445B44ACE80F0064
:10190800BDE8F08F38B50022002304460D46FFF7E6
:101918004DF828B920462946BDE83840FFF734B9C4
:10192800204605F10041FFF72FF9404261EB4101E4
:1019380038BD2DE9F04786468C460846089E154670
:1019480074461946002B40F0C1808542B2FA82F2F3
:1019580045D94AB1C2F1200300FA02FC95409440EF
:101968002EFA03F343EA0C0C4FEA154EA8B2230CE7
:10197800BCFBFEF80EFB18CC08FB00F943EA0C434D
:10198800994528D9EB1808F1FF3704D2994502D9AF
:10199800A8F102072B44A3EB0903A4B2B3FBFEFC96
:1019A8000EFB1C330CFB00F044EA0344A04214D99C
:1019B8002C190CF1FF3304D2A04202D9ACF1020376
:1019C8002C44241A43EA07401EB1D4400023346053
:1019D8007360BDE8F0874746DDE76346F1E792BBF1
:1019E800431B01214FEA154EAFB2200CB3FBFEFC9E
:1019F8000EFB1C330CFB07F840EA0343984561D9FA
:101A0800EB180CF1FF3004D2984502D9ACF1020072
:101A18002B44A3EB0803A4B2B3FBFEFC0EFB1C3360
:101A28000CFB07F744EA0344A7424DD92C190CF1E3
:101A3800FF3304D2A74202D9ACF102032C44E41BC1
:101A480043EA0040C0E7C2F120039540944020FAE1
:101A580003F12EFA03F34FEA154E9040AFB2034359
:101A6800B1FBFEFC0EFB1C10190C0CFB07F841EA3D
:101A78000041884522D969180CF1FF3004D2884505
:101A880002D9ACF102002944A1EB08019BB2B1FBD9
:101A9800FEFC0EFB1C110CFB07F743EA01439F42B7
:101AA8000ED9EB180CF1FF3104D29F4202D9ACF1E8
:101AB80002012B44DB1B41EA004193E76046E3E760
:101AC8006146F7E76046A4E76346B8E7834206D96C
:101AD80016B9002108467CE7C6E900E0F9E7B3FA41
:101AE80083F78FB9834201D3724508D8BEEB02044D
:101AF80060EB030301209C461EB9002169E73846C4
:101B0800FAE7C6E9004CF8E7C7F1200CBB400EFA2B
:101B180007F522FA0CF42EFA0CF1BA401C4320FA0D
:101B28000CF3B8404FEA144901431FFA84FEB3FB93
:101B3800F9F809FB18300B0C08FB0EFA43EA0043CE
:101B48009A4540D9E31808F1FF3004D29A4502D9E2
:101B5800A8F102002344A3EB0A0389B2B3FBF9F806
:101B680009FB183308FB0EFE41EA03418E452CD9C8
:101B7800611808F1FF3304D28E4502D9A8F1020397
:101B8800214443EA0040A1EB0E01A0FB0298414525
:101B9800CE46434602D306D14D4504D20138B9EBAF
:101BA800020E68EB0403002EA7D0B5EB0E0261EB22
:101BB800030101FA0CFC22FA07F3F9404CEA03038B
:101BC800C6E9003199E74046C5E74346D9E710F82A
:101BD800012B11F8013B012A28BF9A42F7D0D01AED
:101BE8007047034613F8012B002AFBD1181A013855
:101BF80070470000000000002DE9F04F8846D0F83B
:101C0800201182460B6B16468FB053B1062218314D
:101C180006F120005FF012FC18B901200FB0BDE8F2
:101C2800F08F504604A9D8F86050D8F88040D6F80C
:101C3800807059F031FB002852D1DDF820B0BBF19B
:101C4800000F04D1DDF81CB0BBF1000F27D042F221
:101C58000F71099B049A8B420AD16FF47A63D318E7
:101C680040F2657293428CBF6FF058036FF05B03CC
:101C78004046ABEB030957F00AF9D8F88C20034625
:101C880008F194010AB9D8F89020D8F850005D46B8
:101C9800CDE9009050462FF033FECB46044604F5BC
:101CA8009C530833BB42B8D3336DB3F57A6F1ADD52
:101CB800D8F85030B3F57A6FACBF4FF0000A4FF048
:101CC800010A002D12DB07F59C5308339C4200F2F1
:101CD800CB80BBF1190F00F3C7804FF0020B3AE03D
:101CE8004FF0000BDBE74FF0000AEAE7336E03EB37
:101CF8004A03AB4215DA3846FEF76CFB80462046AD
:101D08008946FEF767FB4FF033325B4BFEF7DCFB8F
:101D180002460B4640464946FEF748FE002840F07A
:101D2800A38007F59C530833A342C0F09D80BBF104
:101D3800190F00F3998015F1550F31DB15F1500F8C
:101D4800CBDB15F14B0F2EDB15F1460FB4BF4FF06F
:101D5800040B4FF0050B2046FEF73CFB8046384647
:101D68008946FEF737FB02460B46CDE902230022DF
:101D7800424BFEF7A9FB02460B4640464946FEF792
:101D880033FE98B10BF10A0BBAF1000F01D0ABF199
:101D9800020B306E401B5845B4BF002001203DE7C0
:101DA8004FF0010BD7E74FF0030BD4E74FF0333276
:101DB800DDE90201304BFEF787FB02460B46404641
:101DC8004946FEF711FE10B10BF1050BDCE728A31D
:101DD800D3E90023DDE90201FEF776FB02460B4654
:101DE80040464946FEF700FE10B10BF1020BCBE767
:101DF800BC4202D90BF1010BC6E700221F4B40463B
:101E08004946FEF761FB02460B46DDE90201FEF793
:101E1800EBFD10B1ABF10A0BB6E74FF03332164BBE
:101E280040464946FEF750FB02460B46DDE90201F3
:101E3800FEF7DAFD10B1ABF1050BA5E70CA3D3E96A
:101E4800002340464946FEF73FFB02460B46DDE9C4
:101E58000201FEF7C9FD10B1ABF1020B94E7BC42D9
:101E680038BF0BF1FF3B8FE70020D7E6AFF30080C8
:101E78009A9999999999F13F3333F33F0000F83FC4
:101E88002DE9F04706460C4692B0002900F0BD80C7
:101E98000F68002F00F0B9808D68D1F8048005F133
:101EA8000409C1450AD80422AB4978195FF09BFEA2
:101EB800A8B90423F360A36804331DE06B1D98459B
:101EC80010D2454580F0A1807B5D7819222B24D162
:101ED8002146304612B0BDE8F0473BF039B86B1DDB
:101EE80098450ED305229D4978195FF07CFE30B9DC
:101EF8000123F360A36805330120A36086E0C14590
:101F0800DFD80422964978195FF06DFE0028D8D1F1
:101F18000223F36001237361CDE72D2B03D0A3F1D6
:101F28003002092A53D800230DF1080C67464FF0F8
:101F3800010EA8EB0505DFF82C82019310F8012BA0
:101F4800452A3CD82A2A10D9A2F12B01C9B20EFA87
:101F580001F111EA080F01D12E2A06D101333F2BD6
:101F68000CF8012B01D0AB42E8D1002548336B4473
:101F7800384601A903F8405C42F01AFFDDF804A0D6
:101F88008046BA45894640D071A3D3E90023FEF7BD
:101F980021FDB0B9002240464946734BFEF710FDBB
:101FA80090B940464946FEF73FFD0823C6E9068931
:101FB8007061F360A368AAEB070A53449CE7652A9B
:101FC800CBE76FF00040F0E74FF00040EDE75B2B08
:101FD80058D1D4F80C90B9F57A7F16D209F10103DB
:101FE800E3607B5D5B2B10D101352046A5605EF078
:101FF80093FDA368984506D9FA5C5D2A09D10027A4
:10200800C4F80C9036E0013BA360002012B0BDE894
:10201800F08700252F46013BA36020695EF093FD01
:10202800A8460546002800F0A3804FB3C8F8000072
:10203800C0F80480A36820460133A3605EF06CFDFD
:1020480021462846FFF71CFF002800F09180204613
:102058005EF062FDD4E90123934280F08C8022680F
:10206800D35C2C2BD9D05D2B40F08580E368013BF5
:10207800E3607D602023C6E90273A36801333BE770
:102088000746D7E77B2BC0D1D4F80C90B9F57A7FF7
:10209800BBD209F10103E3607B5D7B2BB5D1013530
:1020A8002046A5605EF038FDA3689845ABD9FA5C78
:1020B8007D2A03D10027C4F80C9047E000252F465D
:1020C800A846013BA36020695EF03DFDA946054690
:1020D80000284DD0002F49D0C9F80000C0F804905E
:1020E800A36820460133A3605EF016FD214628460A
:1020F8003AF02EFF00283BD020465EF00DFD2B69FC
:10210800C5F810802B62D4E90123934230D22268AB
:10211800D25C3A2A2CD101332046A3605EF0FCFC45
:1021280021462846FFF7ACFE10B320465EF0F4FCCB
:10213800D4E9012393421ED22268D35C2C2BC2D04F
:102148007D2B18D1E368013BE3607D60402392E773
:102158000000C0FFFFFFDF418D2008007147080025
:1021680077470800E57F00040000E0C10746B7E7AD
:10217800002F3FF44AAF38463BF04AF845E700BF26
:102188002DE9F041C1F30A5702460B460C46A7F267
:10219800FF3605468046132E30DC002E11DA34A3B4
:1021A800D3E90023FDF7DAFF00220023FEF71CFC29
:1021B80020B1002C52DB254354D12C4623462A4615
:1021C80025E02D4F374101EA070C5CEA000C1ED0D0
:1021D80027A3D3E90023FDF7C1FF00220023FEF760
:1021E80003FC0028EAD0002C4FF00005C2BF4FF4D2
:1021F80080133341E41824EA0704DFE7332E0ADDAD
:10220800B6F5806F03D1FDF7A9FF02460B461046CD
:102218001946BDE8F081A7F213474FF0FF3C2CFAAE
:1022280007F73842F3D012A3D3E90023FDF796FF4E
:1022380000220023FEF7D8FB0028BFD0002C0ADDBF
:10224800142E01D1013406E0C6F134060123B3404F
:102258001D44A845F6D825EA0705AFE700254FF045
:102268000044ABE70025054CA8E700BFAFF30080AA
:102278009C7500883CE4377EFFFF0F000000F03FAC
:102288002DE9F041C1F30A5702460B460C46A7F266
:10229800FF3605468046132E36DC002E17DA34A3A7
:1022A800D3E90023FDF75AFF00220023FEF79CFB29
:1022B80050B1002C58DA24F000442C430025AC42DD
:1022C8002D4C08BF4FF0004423462A4625E02B4FEB
:1022D800374101EA070C5CEA000C1ED024A3D3E9BD
:1022E8000023FDF73BFF00220023FEF77DFB0028BB
:1022F800EAD0002C4FF00005BEBF4FF480133341E5
:10230800E41824EA0704DFE7332E0ADDB6F5806F08
:1023180003D1FDF723FF02460B4610461946BDE8D8
:10232800F081A7F213474FF0FF3C2CFA07F707425A
:10233800F3D00FA3D3E90023FDF710FF00220023F9
:10234800FEF752FB0028BFD0002C0ADA142E01D168
:10235800013406E0C6F134060123B3401D44454567
:10236800F6D325EA0705AFE700252C46ACE700BF02
:102378009C7500883CE4377E0000F0BFFFFF0F002B
:102388002DE9F0481646C1F30A5283468C460B469F
:1023980082B921F00043034335D02D4B0022FEF7CC
:1023A80093F82C4B83468C469E420DDA24A3D3E93E
:1023B80000231CE040F2FF77BA4209D10246FDF73C
:1023C800CDFE83468C461EE0C1F30A520B46363AD0
:1023D800324440F2FE718A420CDD4FEADC711E483D
:1023E80019A3D3E900231C4661F3DF742146FEF7E5
:1023F8006BF8E6E7002A0ADD23F0FF4323F4E00345
:1024080043EA0255AC4658466146BDE8F08812F1E9
:10241800350F09DA0CF00043104843F0D27141F44B
:10242800B73141F01F01C1E723F0FF433632584668
:1024380023F4E00343EA02550022094B2946D6E774
:1024480059F3F8C21F6EA5019C7500883CE4377EDD
:1024580000005043B03CFFFF9C75008859F3F8C258
:102468000000903C000000002DE9F04F1F469DB091
:1024780000230C4682460E9218934FF00008974BA3
:102488004FF000091D682846FFF7ABFB224683463C
:10249800179213782B2B3BD02CD80D2B26D8082B32
:1024A80026D8002B2FD000230C93179E3378302B7F
:1024B80072D1737803F0DF03582B63D10C9B17A9F3
:1024C800874A5046019318AB0297009319AB43F023
:1024D800B9F810F00705044635D0062D1AD10E9B21
:1024E8000BB101361E604046494637E0202BDAD151
:1024F8000132CDE72D2BD6D101230C93531C179312
:102508005378002BD1D10E9B002BECD01C60EAE74E
:102518000023F2E7189A3AB135211AA85FF036FF7E
:102528001899504643F060FB013D199A042D06D8CE
:10253800DFE805F0170320231700DDE91A892107D2
:1025480001D549F000490E9B13B1179B0E9A1360F1
:102558000C9B002BC7D0404609F100411DB0BDE8D7
:10256800F08FDDE91A8302F2334223F4801343EA41
:102578000259E4E7DFF86C91E1E76FF000494FF0AA
:10258800FF38DCE7179B5A1C17925B78302BF9D081
:10259800002BD8D0012300E00023002704930A224F
:1025A800179BCDE905770A9317980678A6F13003AB
:1025B800D9B2092924D95A4629465FF014FB0028C4
:1025C8002DD000203246059D83460346652A01D05A
:1025D800452A13D11DB9049A024394D00025179CAB
:1025E800621C179262782B2A6ED02D2A72D04FF077
:1025F800000CA2F1300109297AD91794002699E034
:102608000599013008291790D7BF069902FB0737AB
:1026180002FB01330693059B01330593C4E7179B1F
:1026280003EB0B02179213F80B20059BA3B3834609
:102638001D46A2F13003092B12D90123C6E7179BC7
:1026480001305A1C17925A78302AF8D0A2F1310377
:10265800082B00F2EA8483460020179B05460A935C
:10266800303A00F1010311D09B4400EB050C2B46D6
:102678000A21634512D12B180135082B054419DCB2
:1026880006990A2303FB012306930023179A184689
:10269800511C17915278CCE70598D5E7082B03F120
:1026A800010303DC069E4E430696E2E7102BD8BFD3
:1026B8004F43DEE70F2BDCBF0A2303FB0727E4E7C2
:1026C8004FF0000B012386E74FF0000CA21C179275
:1026D800A2788EE74FF0010CF8E700BF80470700AB
:1026E8000C4707000000F07F179A511C1791527889
:1026F800302AF9D0A2F1310108293FF67FAF303AEC
:102708000792179A0D92179A561C17965278A2F1AB
:10271800300EBEF1090F38D90D99761A082E44F6F5
:102728001F6603DC07998E42A8BF0E46BCF1000F56
:1027380000D07642002D4FD1049908437FF403AFAF
:10274800002B7FF4E0AE692A29D026DC492A26D05E
:102758004E2A7FF4D8AE9D4917A85FF097FC002851
:102768003FF4D1AE179B1B78282B2FD11AAA984972
:1027780017A85FF09FFC052828D11B9BDDF868800F
:1027880043F0FF4949F4E009DDE6079E0A2101FB11
:102798000621A1F130020792B5E76E2AD9E78D49E3
:1027A80017A85FF073FC00283FF4ADAE179B17A87D
:1027B8008949013B17935FF069FC10B9179B0133F6
:1027C8001793DFF818924FF00008BCE6844844F0ED
:1027D8007BF980468946B6E6A6EB0B0306982C469D
:1027E8000F93059B002B08BF2B46102D0593A8BF00
:1027F8001024FDF7EFFD092D8046894614DCA6EB71
:102808000B03002B3FF49FAEA6EB0B0379DD162BD1
:1028180045DC0F9B4246734901EBC3014B46D1E9A6
:102828000001FDF751FED4E76E4B03EBC40353E9F7
:102838001223FDF749FE804689463846FDF7CAFD52
:1028480002460B4640464946FDF788FC0F2D804658
:102858008946D4DD2C1BA6EB0B031C44002C26DC7C
:1028680000F0A380644214F00F020AD05D4B40468A
:10287800494603EBC203D3E90023FDF74FFF804627
:102888008946241100F091801F2C40F3B380222345
:102898004FF000084FF00009CAF8003053E6C5F1C0
:1028A8002503A6EB0B02934219DA2C1B144414F0EF
:1028B8000F030AD04B49424601EBC3014B46D1E90D
:1028C8000001FDF701FE8046894634F00F046CD004
:1028D800B4F59A7F41DD2223CAF8003071E7C5F1CB
:1028E8000F05404C42464B4604EBC501D1E90001B7
:1028F800FDF7EAFD0F9B5D1B04EBC504D4E900233B
:102908008FE71633A6DBABEB0602364B404649464B
:1029180003EBC203D3E90023FDF700FF59E70023C7
:1029280006932223DFF8B4904FF00008CAF800306D
:102938001899504643F058F90699504643F054F90F
:102948000599504643F050F91099504643F04CF918
:102958000799504643F048F9F5E50023241140460D
:102968004946214F0493012C22DC0BB1804689464D
:10297800049BA9F154791C49424601EBC3014B461B
:10298800D1E90001FDF7A0FD144B0A4680460B4033
:1029980016498B429FD8A1F580118B4286BFDFF87C
:1029A80050904FF0FF3802F15479002304934CE023
:1029B800E20704D5D7E90023FDF786FD0123049A31
:1029C8006410083701320492CDE700BFE70708001A
:1029D800F8460700BE650700CA6008000000F07FDF
:1029E800DD450800D8610600B06106000000A07C43
:1029F800FFFFEF7F14F0100340464946AB4F18BF66
:102A08006A2304930023E20704D5D7E90023FDF7DE
:102A18005BFD0123641007F10807F4D10BB1804670
:102A28008946049B43B1C9F30A524946C2F16B0374
:102A3800002B50DC6A2304930022002340464946B9
:102A4800FDF7AAFF00287FF422AF069B5046059A9F
:102A580000932B460A9943F031F9109000283FF46F
:102A68003AAF0F9BABEB060B002BB4BF5B460023C2
:102A780011930F9B23EAE3731493002307930593A1
:102A8800109B5046596843F06FF8069000283FF4B1
:102A980048AF109B0C301A6903F10C010232920006
:102AA8005EF0DCFC1AAB42465046019319AB00932A
:102AB8004B46CDE90A8943F0D1FB189000283FF432
:102AC80030AF0121504643F043F903460590D0B991
:102AD8000023059325E71F2B0EDD342B4FF000084C
:102AE800DBBF4FF0FF33C2F14B024FF05C799340EC
:102AF800D8BF03EA01099DE74FF0FF3202FA03F35A
:102B080003EA080896E7199C1A9A002CA9BF119B9A
:102B1800149BE718149EB8BF1E1B049BB8BF119FD7
:102B2800E41A634B1444C2F13602013C9C4280F221
:102B3800B0801B1B01251F2BA2EB0302CDBFC4F1E4
:102B48007F449D40002404F57F04C2BF04F57B4404
:102B5800E23405FA04F407EB020B049B16445F45C4
:102B68001E443B46A8BF5B46B342A8BF3346002B72
:102B7800C2BFABEB030BF61AFF1A119B002B16DD35
:102B88001A460599504643F0A3F9059000289FD0AE
:102B98000146189A504643F0F1F80D9000283FF48A
:102BA800C0AE1899504643F01FF80D9B1893BBF11F
:102BB800000F71DC0F9B002B08DD149A5046069914
:102BC80043F086F9069000283FF4A9AE002E08DDF0
:102BD80032460699504643F0D5F9069000283FF44E
:102BE8009EAE002F08DD3A460599504643F0CAF9D3
:102BF800059000283FF495AE069A5046189943F080
:102C08002DFA079000283FF48CAEC36805990D9300
:102C18000023C3605FF06FFB00284BDA0D9B53EA7B
:102C2800080340F0BC80C9F31303002B40F0B780C1
:102C380029F000431B0D1B05B3F1D66F40F2AF809E
:102C4800079B5B6923B9079B1B69012B40F3A7808E
:102C580001220799504643F095F9059907905FF0CE
:102C68004AFB002840F39B8029F00043049A1B0D7F
:102C78001B05002A79D0B3F1D66F6DD8B3F15C7F0C
:102C880046D84FF000084FF000092223CAF8003058
:102C98004EE6002401255EE75A461899504643F04F
:102CA80071F91890002885D13BE600BF88610600BD
:102CB80002FCFFFFCB4640F0A3800D9AC9F3130333
:102CC800002A40D0964A934258D1049B42467BB989
:102CD800B8F1FF3F40F08980924B99453FF421AE0F
:102CE800914BDDF8108009EA030303F580191FE60C
:102CF8008D4B09EA0303B3F1D46F16D918F101011A
:102D08001BD1884A91453FF40CAE03F580198046E3
:102D1800864B404649460022FDF7D6FB0B468046C7
:102D2800894603437FF404AEAFE71E0D4FF0FF3131
:102D3800C6F16B06B1408845E7D0002C5ED014EA96
:102D48000B0FE5D01EE0002B4AD1B8F1000F8BD055
:102D580064B314EA0B0F2BE0A3F580134FF0FF3890
:102D68006FEA13596FEA0959D2E7A3F580134FF0B8
:102D7800FF386FEA13596FEA0959D9E59CB114EA8B
:102D8800090F0CD0049A404649465EF074FF02468B
:102D98000B46DDE90A01FDF7E1F980468946049B07
:102DA800002BB5D1C4E515EA080FEAE718EA050FC4
:102DB800F5D0049A404649465EF05DFF02460B4650
:102DC800DDE90A01FDF7C8F90022002304460D4693
:102DD800FDF7E2FD00287FF454AFA046A946DEE7E0
:102DE800002CB6D115EA080FE2E724B114EA090F5E
:102DF8003FF49EADC6E718EA050FF9E72A42A0E7B7
:102E0800059907985FF092FA00224FF08043044634
:102E18000D46FDF7D5FD00286DD00D9B002B78D110
:102E2800B8F1000F56D1C9F31303002B59D1002272
:102E38003F4B20462946FDF7B9FD002858D12046CA
:102E4800294600223B4BFDF73FFB04460D4605F1A2
:102E5800004308940993344B334A0BEA03030BEA03
:102E680002021593344B9A42DDE9086740F09E80D0
:102E7800ABF154794046494643F086F9DDE9082329
:102E8800FDF722FB42464B46FDF768F90B462649FB
:102E980080462A4A1940914254D90B9A214B9A42AA
:102EA80003D10A9B01333FF43CADDFF878904FF033
:102EB800FF381899504642F097FE0699504642F05E
:102EC80093FE0599504642F08FFE0799504642F00E
:102ED8008BFED5E5B8F1010F03D1B9F1000F3FF42E
:102EE800D0AE174C0023124DCDE908340024B2E7C8
:102EF8000024104DABE70F4B204629460022FDF772
:102F0800E3FA0D9B04460D46002BA0D0CDE90845F9
:102F1800A1E7074C00232546CDE908341C469AE76B
:102F2800FFFF0F00FFFFEF7F0000F07F0000503928
:102F38000000F03F0000E03F0000E07FFFFF9F7CC3
:102F48000000F0BF03F15479049B4E46002BB0D12A
:102F580029F00043159A1B0D1B059A42A9D120465A
:102F68002946FEF7CFFCC9F31306FDF77FFA0B4697
:102F780002462946204646EA0806FDF7EDF80D9B6D
:102F880004460D461E434AD02DA3D3E90023FDF77E
:102F98000DFD00287FF4CCAC204629462AA3D3E9AE
:102FA8000023FDF721FD002883D0C1E4049B13B35F
:102FB800159BB3F1D46F1ED82046294624A3D3E924
:102FC8000023FDF7FDFC90B129462046FDF754FD8E
:102FD800012838BF0120FDF7FDF90D9B04460D4679
:102FE800D3B901F1004312901393DDE9126707F199
:102FF800D663159A9F1ADDE90A0143F0C5F802461F
:103008000B4630463946FDF75FFADDE90A23FDF73E
:10301800A5F88046894697E7CDE91245E5E70EA36E
:10302800D3E90023FDF7C2FCBDE7652A3FF448ABAE
:10303800452A3FF445AB0123FFF77EBBAFF3008081
:103048009535A094FFFFDF3F35E5AF350000E03F41
:103058000000C0FFFFFFDF419535A094FFFFCF3F81
:103068002DE9F04F144697B01D46476A8346239EC4
:10307800CDE904457FB9102040F054FE0246CBF854
:10308800240020B9A24BEA21A24840F013FEC0E96F
:1030980001770760C760DBF82430196859B15A68AE
:1030A8000123584693404A608B6042F09DFDDBF84F
:1030B800243000221A602B1EB7BF23F000430023E0
:1030C80001220593A8BF3360059F934BB8BF3260B8
:1030D800BB4319D142F20F73229A1360C7F313034B
:1030E800234300F0E085249B53B98C4B21E08C4BA3
:1030F80008930833249A1360089817B0BDE8F08F36
:10310800864B08930333F5E7DDE90423CDE90C2367
:10311800DDE90C0100220023FDF73EFC804650B19A
:103128000123229A1360249B13B17E4B249A1360C7
:103138007D4B0893E0E714ABC7F30A565846019352
:1031480015AB0093DDE90C2343F088F80390002EBB
:1031580078D00D9BA6F2FF36CDF84C80C3F313034D
:1031680043F07F53DDE90C0143F440131946002274
:103178006E4BFCF7F1FF60A3D3E90023FDF7A4F938
:103188005FA3D3E90023FCF7E9FF04460D46304668
:10319800FDF730F95CA3D3E90023FDF795F9024662
:1031A8000B4620462946FCF7D9FF04460D46FDF795
:1031B8003BFC00220746002320462946FDF7F6FB84
:1031C80040B13846FDF716F922462B46FDF7E4FBD9
:1031D80000B9013F162F54D8554B03EBC703DDE95F
:1031E8000C01D3E90023FDF7E1FB00284BD0013F98
:1031F80000231293149B9B1B5A1E4CBFC3F101035F
:1032080000230A9245BF0693002306930A93002FD2
:103218003BDB0A9B0F973B440A9300230B93209BAD
:10322800092B00F28980052BC5BF043B002401242B
:103238002093209B023B032B00F28980DFE803F0F8
:103248002D3A3859DDE914631E4406F23243202B27
:10325800C9BFC3F14003C3F120039F4006F21243E4
:10326800D8BF04FA03F006F1FF36C4BF24FA03F30B
:1032780047EA0300FDF7AEF80122A1F1F8731392B3
:1032880074E70123B5E71290B4E7069BDB1B0693AE
:103298007B420B9300230F93C1E700230E93219BDE
:1032A800002B57DC012399461A46099321920CE01A
:1032B8000123F3E700230E93219BFB1803F1010977
:1032C80009934B46012BB8BF0123DBF824000021EA
:1032D800042202F114059D4240D94160584642F04B
:1032E80043FC089000283CD1124B02464FF4D5719C
:1032F800CAE60123DFE700BF61436F63A787D23FB8
:10330800B3C8608B288AC63FFB799F501344D33FCC
:10331800D4600800EB6008000000F07FD06008006F
:10332800C7600800ED850700EC8507000000F83F3E
:10333800D86106005F610800012400230E942093E1
:103348004FF0FF330022994609931223AEE7012379
:103358000E93F5E7219B99460993B6E70131520090
:10336800B7E7DBF82430B9F10E0F089A1A606FD866
:10337800002C6DD0002F36DD07F00F02A04BF805AA
:1033880003EBC203D3E90034CDE910344FEA271424
:1033980017D59C4B04F00F044FF00308D3E908231A
:1033A800DDE90C01FDF7BAF9CDE90401954D5CB9E9
:1033B800DDE91023DDE90401FDF7B0F9CDE90401E9
:1033C8002BE04FF00208F1E7E10709D508F1010801
:1033D800DDE91001D5E90023FDF776F8CDE9100104
:1033E80064100835E3E700F007817C42844B854D83
:1033F8004FF0020804F00F02241103EBC203DDE9C9
:103408000C01D3E90023FDF75FF80023CDE904019F
:10341800002C40F0E580002BD0D1129BDDE904455B
:10342800002B00F04C810022774B20462946FDF7FF
:10343800BDFA002800F04381B9F1000F00F03F8188
:10344800099B002B00F3E480DDE90C34CDE904345A
:10345800159B002B02DB0E2F40F342820E9A002AA6
:1034680040F067820B9C0025DDF81880B8F1000F4A
:103478000DD00A9B002B0ADD4345069AA8BF434698
:10348800D21AA8EB030806920A9AD31A0A930B9B3E
:103498000BB30E9B002B00F0A682002C00F0A1823B
:1034A80029462246584642F013FD039A014605462E
:1034B800584642F063FC03990646584642F094FB8E
:1034C8000B9B1B1B0B9300F091820B9A31465846BD
:1034D80042F0FEFC03900121584642F039FC0F9B54
:1034E8000446002B00F084821A460146584642F0F2
:1034F800EFFC209B0446012B03DC049B002B00F00F
:103508007C820026236904EB830318695EF0A4FE1D
:10351800C0F120000F960A9B184410F01F0000F01D
:103528009182C0F12003042B40F38182C0F11C007A
:10353800069B0344804406930A9B03440A93069B14
:10354800002B05DD1A460399584642F01BFD0390EF
:103558000A9B002B05DD21461A46584642F012FD0B
:103568000446129B002B00F07682214603985EF0F9
:10357800C2FE002880F26F8200230A22039958466F
:1035880042F054FB0E9B7E1E0390002B00F05C82E1
:10359800002329460A22584642F048FB099B054663
:1035A800002B03DC209B022B00F35E82B8F1000F96
:1035B80005DD29464246584642F0E4FC05460F9B85
:1035C800002B00F0D0826968584642F0CDFA0746D1
:1035D800002840F07F820D4B024640F2EA2153E575
:1035E800E20706D508F10108D5E90023FCF76CFFCE
:1035F8000123641008350BE74FF002080DE700BF00
:10360800D8610600B06106000000F03F5F61080065
:1036180020460022AC4B2946FCF756FF7E1E08F1D7
:103628000108099CCDE904014046FCF7E3FEDDE909
:103638000423FCF749FFA54B0022FCF78FFDA1F1FD
:103648005073CDE910011193002C3BD10022A04BFF
:10365800DDE90401FCF780FD02460B46CDE90423B1
:10366800DDE91023FDF7C0F9002840F05781DDE9B6
:10367800102101F10043DDE90401FDF797F9002865
:103688003FF4E2AE00242546219BDDF820A0DE436E
:103698004FF000082146584642F0A6FA002D00F0E7
:1036A800A980B8F1000F05D0A84503D04146584677
:1036B80042F09AFA2946584642F096FA9AE03E466F
:1036C8004C46B1E7834B03EBC40353E90201089B63
:1036D8001C440E9B002B4AD002460B4600207E4914
:1036E800FDF71CF8DDE91023FCF736FDDDF820A016
:1036F800CDE91001DDE90401FDF796F90546FCF76F
:1037080079FE024630350B46DDE90401FCF724FD5D
:103718000AF8015B02460B46CDE90401DDE9100118
:10372800FDF762F9002865D100206C49DDE9042322
:10373800FCF712FD02460B46DDE91001FDF754F9CE
:10374800002840F00D81A24500F0EA8000225E4B7F
:10375800DDE91001FCF7B8FE00225B4BCDE9100152
:10376800DDE90401FCF7B0FECDE90401C2E7DDE9BB
:103778001023FCF7A9FEA046DDF820A0CDE9100132
:10378800DDE90401FDF750F90546FCF733FE024672
:1037980030350B46DDE90401FCF7DEFC0AF8015B75
:1037A80002460B46A245CDE904234FF0000223D17F
:1037B800494BDDE91001FCF7D1FC02460B46DDE977
:1037C8000401FDF711F9002840F0CA8000204249A1
:1037D800DDE91023FCF7C0FC02460B46DDE90401D5
:1037E800FDF7E4F870B1C24608F1FF381AF8013C59
:1037F800302BF8D0374655E0334BFCF765FECDE962
:103808000401BDE7DDE90C34CDE90434159B002B38
:10381800FFF628AE0E2F3FF725AE2E4B03EBC7035E
:10382800D3E90034CDE90634219B002B02DAB9F143
:10383800000F64D0DDF820A0DDE90445DDE90623AA
:1038480020462946FCF76AFFFDF7EEF80646FCF726
:10385800D1FDDDE90623FCF737FE0246204606F1D6
:1038680030040B462946FCF777FC0AF8014B089C04
:1038780002460B46AAEB0404A14540F08280FCF7FF
:103888006DFC04460D46DDE90623FDF7ADF800287A
:1038980065D120462946DDE90623FDF77DF808B104
:1038A800F3075CD40399584642F09EF90023013788
:1038B8008AF80030229B1F60249B002B3FF41CAC2D
:1038C800C3F800A018E400BF0000244000001C401A
:1038D80000001440D86106000000E03F0000F03FFF
:1038E800A24B03EBC703D3E90034CDE90634219B8F
:1038F800002B9FDAB9F1000F9CDC7FF4C3AE0022E5
:103908009B4BDDE90601FCF7DFFDDDE90423FDF74C
:1039180061F8044600287FF4B5AE3E462546B4E07B
:10392800DDE90C34CDE90434159B002B01DB0E2FA7
:10393800D6DD209A012A36DC139A82B303F2334388
:103948000B9CDDF81880069A012158461A44069205
:103958000A9A1A440A9242F0FBF9054686E53E4661
:1039680053469A4613F8012D392A06D1089A9A42E5
:10397800F7D13022089901360A701A7801321A7084
:1039880038E700227B4BFCF79FFD0022002304460A
:103998000D46FDF701F800283FF450AF82E7149B6D
:1039A800C3F13603CCE709F1FF340B9BA34208DBD4
:1039B800B9F1000FA3EB04040EDBDDF818804B46C9
:1039C800C1E70B9B0F9AE31A0B94DDF818800024CB
:1039D8001A444B460F92B6E7069BA3EB090800234F
:1039E800B1E7039E71E50B9A039970E5039672E5BA
:1039F800209B012B17DC049BABB9059BC3F3130376
:103A08009BB9059B23F00046360D360536B1069B5B
:103A18000126013306930A9B01330A930F9B002B5F
:103A28007FF470AD0F96012075E50026F6E73FF4A8
:103A380086AD1C33069A1A44984406920A9A1A4488
:103A48000A927CE50346F4E7099B002B2BDC209BBC
:103A5800022B09DC27E0B9F1000F1DDC209B022BAB
:103A68001ADD3E46CDF82490099B002B7FF40CAE5E
:103A780021460522584642F0D9F8014604460398E3
:103A88005EF039FC00287FF7FFADDDF820A0312378
:103A980001360AF8013BFBE50E9B3E46CDF8249023
:103AA800002B7FF483AD089F214603985EF035F91B
:103AB800089B00F13009099A07F8019BFB1A9A4202
:103AC80040F3CB8000230A220399584642F0AEF80F
:103AD8000390E9E72A6905F10C010C3002329200E3
:103AE8005DF0BCFC01223946584642F04BFA089B6F
:103AF800A846054603F1010ADDE9082313440A93A1
:103B0800049B03F001030B930AF1FF33214603984A
:103B180006935EF002F94146099000F130090398D6
:103B28005EF0E9FB2A4621460746584642F096FAD7
:103B3800C268014602B3584642F056F8002F3ADAF6
:103B480001220399584642F01DFA214603905EF07F
:103B5800D2FB002803DC29D119F0010F26D0B9F1D6
:103B6800390F1DD132E02846C1E700BFD8610600F1
:103B780000001440000024400E9003985EF0BBFB48
:103B88000E990C90584642F02FF80C9A5ABB209B7D
:103B980053B90B9B43B9B9F1390F17D0002F05DD85
:103BA800099B03F1310901E0002F2ADADDF818A09A
:103BB8000AF8019B6EE5209B3B4304D1049B03F06C
:103BC8000103002BBCD0B9F1390F36D1069F392338
:103BD80007F8013BBA46013F1AF8013C392B5AD085
:103BE80001333B7056E5002F06DB209B3B4306D193
:103BF800049B03F0010313B9002AA1DCD6E7002ACD
:103C0800E1DC0A9B57460AF8019C53452ED0002355
:103C18000A220399584642F009F8A84503904FF044
:103C280000034FF00A02414658460BD141F0FEFF0F
:103C3800804605460AF1010A66E7DDF818A009F191
:103C48000109B5E741F0F2FF2946804600230A2220
:103C5800584641F0EBFF0546ECE7099B4FF000089A
:103C6800002BCCBF1F460127089B1F440122039944
:103C7800584642F087F9214603905EF03CFB002845
:103C8800A8DC02D119F0010FA4D1BA4617F8013DFA
:103C9800302BFAD0FEE4089BBB429BD13123089A13
:103CA80001361370F6E4249B002B7FF420AA014B05
:103CB800FFF73FBAC76008002DE9F04F0129844695
:103CC8008E4687B064D8002942D033A3D3E90023B5
:103CD80033A7D7E9006734A5D5E900450FF2D00B23
:103CE800DBE900AB34A1D1E90001CDE9042334A319
:103CF800D3E90023CDE9002333A3D3E90023CDE999
:103D0800022333A3D3E900234FF000084FF0000942
:103D1800CCE90A01DDE90401CCE90C01DDE9000187
:103D2800CCE90E01DDE90201CCE910010020CCE963
:103D38000089CCE90289CCE90467CCE90645CCE9DD
:103D480008ABCCE91223CCF8D0E007B0BDE8F08F7F
:103D580021A3D3E9002322A7D7E90067CDE90423EB
:103D680021A5D5E9004522A3D3E900230FF2880B4A
:103D7800DBE900ABCDE9002321A1D1E9000122A3B1
:103D8800D3E90023CDE9022321A3D3E90023BBE72C
:103D98006FF07400D9E700BF310BC0FF67263367A7
:103DA800D89E05C15D9DBBCB07D57C362A299A6272
:103DB80017DD70305A01599139590EF7D8EC2F1583
:103DC80011155868874AB48EA78FF9640D2E0CDB3D
:103DD800A44FFABE1D48B547D182E6AD7F520E51B9
:103DE80008C9BCF367E6096A3BA7CA8485AE67BB06
:103DF8001F6C3E2B8C68059B2BF894FE72F36E3C6F
:103E0800F1361D5F3AF54FA56BBD41FBABD9831F5A
:103E180079217E1319CDE05BB0B54FF0FF3488B03F
:103E280000AF4FF400420023394619483C6012F0B5
:103E38003FFA48B36D4688B06A46164BC2E905306A
:103E4800032342F8103F00234FF4C251124804F0F4
:103E580047F84FF4A022AD4600231048391D7C6076
:103E680012F026FA80B10E4BFB610223BB610023DE
:103E78004FF48251084807F1180204F031F803F0B2
:103E8800C9FE002002F066FF2037BD46B0BD00BF66
:103E9800441000200E550700B85F0600FC0F0020F4
:103EA8002755070090B589B01D4800AF14F04CFFA6
:103EB80058B36C4688B06A461A4BC2E905300323EA
:103EC80042F8103F00234FF4C251174804F008F895
:103ED8004FF0FF33A5467B604FF4A0220023134820
:103EE800391D12F0E5F9C0B1114BFB610223BB612A
:103EF80000234FF482510C4807F1180203F0F0FF39
:103F080003F088FE002002F025FFFFF785FF00215F
:103F18004FF4F0103EF086F8F7E72437BD4690BD21
:103F2800D1D3040066550700B85F0600FC0F0020D7
:103F3800275507002DE9F041344DA2B0344E00AFAB
:103F48004FF0FF324FF0FF333946284612F066FA39
:103F5800044618B18837BD46BDE8F0813B68B342D6
:103F6800EED164222B4907F124005DF077FA5DF069
:103F78004FF84FF47A72A0FB020302FB0133C00B27
:103F880040EA43436421244A07F1240049F0B2FA85
:103F980063282CD9E84688B06A46204BC2E9053028
:103FA800032342F8103F4FF4C25123461C4803F044
:103FB80097FF4FF0FF33C5467B604FF4A0220023E4
:103FC8001848391D12F074F90028B9D0164BFB6156
:103FD8000223BB614FF482512346114807F11802AE
:103FE80003F07EFF03F016FE204602F0B3FE4FF406
:103FF800004200230D4807F1240112F059F9002866
:104008009ED0E84688B06A46094BC7E7741000207E
:1040180044100020FC60060099550700BB550700B6
:10402800785F0600FC0F0020275507002C100020A1
:10403800E255070090B52C4B89B0994200AF05D0E6
:104048000133994243D02437BD4690BD274B4FF4E6
:104058008651FB6102232648BB6107F1180249F02B
:10406800B8F90123FB704FF4004200232148F91CE2
:1040780012F01EF90028E6D06C4688B06A461E4B3E
:104088004FF4C251C2E905300323194842F8103FE2
:1040980049F09FF94FF0FF33A5467B604FF4A0220B
:1040A80000231648391D12F003F90028CBD0144B11
:1040B8004FF48251FB6102230D48BB6107F11802DE
:1040C80049F087F903F0A6FD002002F043FE0D4BEE
:1040D8004FF48651FB6102230548BB6107F11802C2
:1040E80049F077F90023BDE7010004E01256070004
:1040F800605F0600141000200E550700FC0F00201A
:104108002755070028560700B0B53348334B88B009
:104118004360334B00AF03610AF0D6FF3148324B9E
:104128004360324B03610AF0CFFF00214FF4004097
:104138003DF078FF09F0C8F920BB02252C4B4FF45D
:1041480082512C48FB6107F11802BD6149F041F921
:104158004FF0FF334FF4A0227B6027480023391D1E
:1041680012F0A6F8A0B3254BC7E906534FF48251C5
:10417800204807F1180249F02CF903F04BFD002004
:1041880002F0E8FD002301461A461D4815F008F91B
:10419800F0B16C4688B06A461A4B4FF4C251C2E976
:1041A80005300323134842F8103F49F012F94FF045
:1041B800FF33A5467B604FF4A02200230E48391D2B
:1041C80012F076F820B10D4BFB610223BB61CDE7FD
:1041D8002037BD46B0BD00BFFC30002011420000B2
:1041E800070056D1E83000203D400000030004E0FD
:1041F8003A560700605F0600FC0F002027550700AD
:104208006F0056515D560700F0B589B0394A83688A
:10421800914200AF0ED0384B99422BD06C4688B0F3
:104228006A46364BC2E9053103234FF4C25142F8BE
:10423800103F0CE01B687BB16C4688B06A46304979
:10424800C2E9051303234FF4C65142F8103F2D4825
:1042580049F0BFF8A5460AE02B4B4FF48651FB61A5
:1042680002232848BB6107F1180249F0B2F8243745
:10427800BD46F0BD6E4602250024244B4FF48651FE
:104288002048FB6107F11802BD6149F0A2F84FF41C
:10429800004200231E48F91CFC7012F009F800289F
:1042A800E5D088B06A461B4B4FF4C251C2E90530CD
:1042B8000323144842F8103F49F08BF84FF0FF33BE
:1042C800B5467B604FF4A02200231348391D11F036
:1042D800EFFF0028CBD0114B4FF48251C7E90653AA
:1042E800084807F1180249F074F803F093FC2046D7
:1042F80002F030FD030056D1040056D1E356070002
:1043080083560700605F0600AE560700D6560700C2
:10431800141000200E550700FC0F00202755070039
:104328000149024807F0F2BDD865060010310020A7
:104338000149024807F0EABDC865060010310020AF
:1043480010B5037D044633B902690B4B9A4212D16A
:104358000A483CF08FFD237D012B0CD12269064BC6
:104368009A4208D1BDE810404FF420320023034997
:1043780003483CF005BD10BD1410002000000020CB
:10438800F0120020037D012B05D1002200230249F1
:1043980002483CF0F5BC704700000020F0120020F5
:1043A80003462DE9F04119790068DB8803F03002F3
:1043B800302A0669D0E901470ED1214940F2D723B6
:1043C800204A214849F01AFB204849F017FB40F2DF
:1043D800D7211C4849F00BFB03F00602042A09D137
:1043E8001B4940F2DE23174A174849F007FB40F201
:1043F800DE21EEE701252468DA0705FA01F554BF46
:1044080043F4D01383F4B013254223F480120CD163
:10441800104940F2F1230B4A0B4849F0EFFA0E48D5
:1044280049F0ECFA40F2F121D3E73468DB074CBFDE
:104438002C43AC4334603B68BDE8F041184700BFEB
:1044480036570700055707006F5707008C570700B6
:10445800C9570700FC5707003A5807002DE9F043F1
:104468000024AFB002AF1022002107F138005DF040
:104478002FF87B4B7B48FB627B4B3B637B4B7B631F
:104488007B4BFB633CF052FB76486FF00F034FF415
:104498008052784900943CF063FB38F049FF07F1FB
:1044A8002C0015F0C3F948B36D4688B002AA724BC8
:1044B8004FF4C251C2E905300323704842F8103F57
:1044C80048F08CFF4FF0FF33AD463B614FF4A0221C
:1044D80000236B4807F1100111F0EAFEB0B1694BF7
:1044E80007F15802FB650223BB6564484FF482510B
:1044F80048F074FF48F070FF002064E06248FFF75E
:104508004FFF002806DA614848F0E7FFB437BD4698
:10451800BDE8F0835E48FFF743FF002801DA5D48F5
:10452800F2E75D48FFF73CFF002801DA5B48EBE75C
:104538005B495C484AF039FFDFF86C81594EDFF877
:104548006C914FF0FF324FF0FF33404607F10801FE
:1045580011F064FF05460028D8D1BB684B4533618C
:1045680040D14FF4004200234846F91D11F008FFDE
:1045780058B36E4688B002AA4D4B4FF4C251C2E9F7
:10458800053003233D4842F8103F48F027FF4FF01D
:10459800FF33B546FB604FF4A0220023384807F1EB
:1045A8000C0111F085FE0028B0D0364B33487B62F1
:1045B80002234FF482513B6207F1200248F00EFFBC
:1045C80048F00AFF284602F0C5FBFB7930463375F0
:1045D8004AF0F7FE30B16D4688B002AA354BC2E901
:1045E800053011E0B868344B9842AAD14FF4004224
:1045F800002307F1480111F0C3FE18B36D4688B0D7
:1046080002AA2B4BC2E9053003234FF4C25142F8EA
:10461800103F1A4848F0E2FE4FF0FF33AD46FB600A
:104628004FF4A0220023164807F10C0111F040FEB8
:1046380000283FF46BAF134B07F120027B62022383
:104648003B6252E764221D4807F148015CF006FF0F
:1046580014484AF0B6FE00283FF471AFBBE700BF2C
:1046680039430000F012002029430000614B00008C
:10467800C9460000C08C00204C580700B05F0600F7
:10468800FC0F002027550700F8650600685807004A
:10469800F06506008E580700E8650600B458070064
:1046A800D86506001031002080100020141000206A
:1046B800DA580700F45807002C1000202531002094
:1046C80098B540F6A513984200AF15D1A9B96C4624
:1046D80088B06A46154B4FF4E6515361144B936109
:1046E8004FF400739383134B42F8103F124848F07D
:1046F80075FEA546BD4698BD59B16C4688B06A4658
:104708000E4BC2E9053103234FF4C25142F8103F62
:10471800ECE76C4688B06A46094B4FF4C451C2E9CD
:104728000530032342F8103FE0E700BF0D590700AA
:10473800C55A002003000001B05F06002459070095
:10474800495907002DE9F04389B0E84600AF474BC7
:104758004FF48651FB6102234548BB6107F11802FB
:1047680048F03CFE88B06C464FF400792546414B32
:10477800414E6361414BA4F81C90A36145F8106F4A
:104788002A464FF4E6513A4848F028FEC546A54661
:104798003B4B2A4663613B4B4FF4E6513448A361D7
:1047A800A4F81C90266148F019FEC546A546364B6C
:1047B8002A46636140F25B73A36103234FF4C65139
:1047C8002B48236148F00AFEC546A5462F4BA4F89E
:1047D8001C9063612E4B2661A36100242A464FF486
:1047E800E651234848F0FAFD2A48C5463CF042FB0A
:1047F80029483C61B860FDF7F4F907F108033B600C
:10480800264B274DDFF86880F8607B60BB889C42A8
:1048180016D3384615F0D0F970B16C4688B06A46A0
:10482800204B4FF4C251C2E905300323104842F827
:10483800103F48F0D3FDA5462437BD46BDE8F083B8
:104848000C2363433A68E94688B0D3586A46C2E9FC
:1048580005534FF400734FF4E6519383404642F8F2
:10486800106F48F0BBFD0134CD46CFE76D59070006
:10487800B05F06008659070003000001935907003E
:10488800A5590700355B0020B3590700BC5907003C
:10489800C459070000000020C55A00200100A509DE
:1048A800C7590700DA590700F0B587B0027D0446FA
:1048B800036900AF3AB9274A934204D115F02AF99F
:1048C8001C37BD46F0BD244A9342F9D1102200217D
:1048D80007F108005CF0FCFD20483860FDF781F91D
:1048E8000123786004F115003B72F860FDF779F94F
:1048F80038615CF08DFB4FF47A7343433846DB0B29
:10490800BB8215F09FF978B16C4688B06A46144BA3
:104918004FF4C451C2E90530032342F8103F11484F
:1049280048F05CFDA546CBE76C46D7E90305D7E917
:1049380000318CB06A4653620B4B0C4E93620C4BA1
:10494800C2E90701C2E905654FF4635142F8103F17
:10495800E5E700BF141000202C100020FD5A0020AD
:10496800035A0700B05F060001030305235A070036
:10497800060000027FB5064B4FF4865105930223CB
:10498800044804AA049348F029FD07B05DF804FB25
:104998004E5A0700B05F060090B5444B91B002AF85
:1049A8003B621123424C7B622046BC62FDF719F939
:1049B800404BF8623B631523322120467B6300F0AD
:1049C8006DF950B36C4688B002AA3B4BC2E905307A
:1049D80003234FF4C25142F8103F384848F0FEFC18
:1049E8004FF0FF33A5467B604FF4A02200233448E4
:1049F800391D11F05DFC002854D0324B2F48FB6163
:104A080002234FF48251BB6107F1180248F0E6FC1B
:104A180048F0E2FC002002F09DF92B4B382100936E
:104A28002A4A23462A4848F065FD372813D9294BD6
:104A3800FB61022307F118024FF482511F48BB6142
:104A480048F0CCFC6C4688B002AA234B53616FF047
:104A580079039361BCE7214B382100931B4A234615
:104A68001F4848F047FD372801D91E4BE0E707F1FA
:104A7800200014F029FF70B16C4688B002AA1A4BC6
:104A88004FF4C251C2E9053003230C4842F8103FE5
:104A980048F0A4FCA5464FF4F0120023134914482B
:104AA8003CF06EF93C37BD4690BD00BF93590700F6
:104AB800355B00206C5A0700825A0700B05F060079
:104AC800FC0F002027550700A15A07009B5A070032
:104AD800FD5A0020A75A0700ED5A0700C65A0700DA
:104AE800C55A0020CC5A0700065B070000000020CA
:104AF800F0120020034610B50A4619790123006810
:104B080003FA01F1436804691B6819420ED10E4982
:104B180040F25C530D4A0E4848F070FF0D4848F0CB
:104B28006DFF40F25C51094848F061FF2368194263
:104B380018BF82F0010222B18368DB68BDE810402B
:104B4800184783681B69F9E7FC57070005570700F2
:104B58006F5707003A580700F0B585B000AF07F166
:104B6800100404E903006D468CB0C7E9002314461D
:104B78001846D7E902316A4653623A4B3A4E936275
:104B88003A4BC2E90741C2E905604FF4635138481E
:104B980042F8103F48F022FC2046AD465BF0EFFF9C
:104BA8000446B0B938F008FB80B188B06A46314B8A
:104BB8004FF4E651C2E905304FF4007393832E4B4E
:104BC8002B4842F8103F48F009FCAD46002038F069
:104BD8001FFB204629495BF0D6FF05465BF0D6FF50
:104BE80098B12D698DB10622284625495CF0FBFF56
:104BF80088B901212348FFF77DFF01212248FFF7EB
:104C080079FF01212148FFF775FF204638F000FBA6
:104C18001437BD46F0BD1E49062228465CF0E3FF66
:104C280001460028E6D0062228461A495CF0DBFF38
:104C3800064628B901211348FFF75CFF3146DDE736
:104C48002846072214495CF0CEFF05460028D0D13B
:104C580001210C48FFF74EFF01210B48FFF74AFFDF
:104C68002946CFE701030305305B07000600000271
:104C7800B05F0600565B070003000001E45E080011
:104C8800615B0700F8650600F0650600E865060048
:104C9800685B07006F5B0700765B070010B5084B81
:104CA800084A0C4648F026FC002805DBA04234BF21
:104CB80000206FF0790010BD6FF07900FBE700BFAE
:104CC8009A5B07007D2A08007FB5084B05930223ED
:104CD800049300234FF48251054804AA03F000F915
:104CE80002F098FF002002F035F800BFA05B070033
:104CF800F85D060008B5034B834201D1FFF7E4FFD6
:104D080008BD00BFFC0F0020B0B586B000AF284D2D
:104D180028465CF027F8034668B9264A7A610222D9
:104D28003A614FF48251244807F1100203F0D8F891
:104D38001837BD46B0BD214B9B681C78CCB1012CFF
:104D48002FD1AB68214628461B6898470028EFD02A
:104D58006C4688B06A461A4BC2E90530032342F80C
:104D6800103F00234FF4C251134803F0B9F8A54689
:104D7800DEE7AB68012128465B6898470028D7D052
:104D88006D4688B06A460F4BC2E90530032342F8E6
:104D9800103F00234FF4C251074803F0A1F8AD4675
:104DA800C6E76D4688B06A46074BC2E90534EDE7A9
:104DB8000C5A0600B75B0700185E060014100020A6
:104DC800CF5B0700E15B0700E3560700024B834215
:104DD80001D1FFF799BF7047141000202DE9F04F5B
:104DE80091B0009302F004030193C2F3C2030133AC
:104DF8000493830705460E46DDF86890029240F05A
:104E0800FE81041D30B1072909D86FF01B0011B0CD
:104E1800BDE8F08F01F00706341DC6F108064FF013
:104E280000084FF0040B009B4746591E4FF0FF3215
:104E38004346DA46CDF80C800DB1009820600498FE
:104E4800002800F3E1809C48DDF800C0844503D3C6
:104E58009A488445C0F0D880DDF808C0A4EB050E58
:104E68001CF0020F4FEA9E0000F0E9804FF0000CA2
:104E7800D3E07A2864D84B280FD8472860D8292847
:104E88002FD825285BD05BD820287FD0A0F1230914
:104E9800D9F1000343EB090378E0A0F14C0EBEF111
:104EA8002E0F4DD8DFE80EF0724C4C4C4C4C4C4C4D
:104EB8004C4C4C4C4E4C4C4C4C4C4C4C4C5C4C4E16
:104EC8004E5C5C5C724E6F4C724C184E184C4C81A8
:104ED8007E4E4C4C4E4C7E00002000234FF0040BBD
:104EE8003CE0A0F12A0E01205FFA8EFE00FA0EFEC9
:104EF8004FF6DA701EEA000F48D11EF062502FD12B
:104F08001EF0010342D0013C5C44CBF1000E04EAE0
:104F18000E04002D5ED0AAEB050EA6447645FFF4DC
:104F280074AF002868D1BAF1040F43D1E14659F8AB
:104F3800040B2060CC464FF0040A043426E0013A02
:104F4800002323E011F8013C6C2B30D1002011F82C
:104F5800023C6C2B0346C1D14FF0080BDA46D2E76E
:104F68000CF1070929F0070C073424F00704FCE8C2
:104F780002AB35B105982044B0423FF646AFC4E9CC
:104F880000AB002308344FF0080BDA4611F8010F84
:104F9800002800F0BC80002B7FF46BAF2528F5D1EA
:104FA800012301324FF0040BEFE7184695E7002084
:104FB8000346A8E7BAF1080F40F09B800CF10709F7
:104FC80029F0070CFCE8029AC4E9009A4FF0080A95
:104FD8000834DBE780B9BAF1040F02D10CF10409F7
:104FE800A8E7BAF1080F40F084800CF1070929F00E
:104FF800070909F1080CE9E7E1460498013804902B
:1050080059F8040B009017E70298800748D54FF02D
:10501800010CA4EB050E4FEA9E00BEF5007F1DD3E0
:10502800274940F27B23274A274848F0E7FC2748CE
:1050380048F0E4FC40F27B21224848F0D8FC0F2FCE
:105048000ED8002D46D007F1400CEC440CF8200C8B
:105058000CF8102C03980130039020E00F2F0CD986
:1050680017494FF42073174A174848F0C7FC1848E7
:1050780048F0C4FC4FF42071DEE7BDB107F1400EE3
:10508800EE44C0B20EF8200C0EF8102CBCF1000F44
:10509800E0D060F07F000EF8200C08F1010801371D
:1050A800C5F10800CC46043405906FE7BCF1000F49
:1050B80010D00136F3E700BF54580600A863080073
:1050C800EC850700F45B07006F570700225C0700B8
:1050D800435C0700019802360028E0D10098CDE92A
:1050E80006310592FCF77DFDDDE90631059A064497
:1050F800D5E740F2C523434A4349444848F07EFC7B
:105108005146434848F07AFC40F2C52194E7631BB6
:10511800B3F5806F0CD33C4940F2D123394A3B4860
:1051280048F06CFC3B4848F069FC40F2D12183E729
:105138001DB9A6F10804E01869E6019A9B082860E1
:105148002B709DF80C30C2B1EB7085F80280B8F175
:10515800000F05D0002208A8C5F1010C97420ED116
:105168004FF0000AC5F101030DF1200902930DF17A
:10517800300B574512D1601B49E66B70E5E710F814
:10518800013B190608D504EB0C0E764503F07F03A6
:10519800FFF43BAE04F8013B0132DFE7B8F1000F42
:1051A80003D099F90020002A17DB019BD3B11AF824
:1051B8000B2004F8012B0022029B981820448642F9
:1051C800FFF423AE99F80000009904F8010B20467B
:1051D80003925CF043F9039A14440AF1010A09F1B5
:1051E8000109C6E799F8002055F822300093019B81
:1051F800009845F82230FCF7F4FC421CDCE76FF01D
:105208000D0004E6F45B0700EC8507006F57070004
:105218005D5C0700725C07002DE9F04F95B000AFA8
:105228008A4604467A62BB6158B9A8494FF4657347
:10523800A74AA84848F0E2FB4FF46571A44848F033
:10524800D6FBBB6F90F802B0C3F3C0033B6141B912
:10525800457800780BEB80002044554517D8A0EB23
:10526800040AE3787B61BBF1000F02D0BB6FD8075B
:1052780016D47B6953BB7B6A1BB151462046BA6979
:105288009847554628465437BD46BDE8F08F461C1A
:105298003046FCF7A6FC013030440AF1010ADCE78D
:1052A800237862683B629B00FB603B6AFA6104EB0F
:1052B80083097B6A002B40F00081C84600265546CA
:1052C80009EB0B0AC24551D1D94413E0BB6F9907CA
:1052D800D1D5237899463B629B00FB60636804EB59
:1052E8008909FB617B6A002B7AD15546BBF1000F17
:1052F8004FD15E46BB6F13F0050F0CBF4FF0020B8A
:105308004FF0010B7B6909EB430ABB6F03F0020303
:105318007B62D145B6D019F8021B19F8013C54F844
:1053280023806D4B984502D36C4B984538D33B6925
:10533800002B42D0F86948F085F800283DD0E846AF
:105348008AB06A46664B5361FB69C2E906314FF47D
:1053580000731384634B42F8103F00234FF412513B
:10536800614802F0BDFD023DC546D2E718F8013B91
:1053780054F82300FCF735FCFB6F01303BB1D7F83C
:1053880080309E423EBFFB6F23F81600013605446D
:1053980098E7BB6F13F004061CBF7E6AD944A9E7DF
:1053A8003B6923B1F86948F04DF80028C7D1BB6FB5
:1053B800DA0705D4A5EB0B05ABE77B6A002BA8D071
:1053C8004046FCF70EFCFB6F43B1D7F880309E4295
:1053D8003FBFFA6F431C22F816300136054498E7A0
:1053E800BBF1000F6FD0BB6F13F004067ED0D84618
:1053F800002607F140005A4649465CF02FF87B69C1
:10540800D9445B007B607B6909EB4303BB60BB6FDE
:1054180003F002033B60BB68994569D1B96F6378B3
:10542800B86F890748BF002106EB030258BF4FEA4F
:105438005801C507D2B200F1DF8010F0040F14BF85
:1054480040460020FB616270A070E1702046BA6996
:10545800F9687B6A9847051EFFF614AF3B6A414618
:105468002370FB69BA6963707B6984F802B0E370E2
:1054780007F140007B6A9847B0F10008C0F2E98064
:10548800FB68AAEB0B01C91A7B684846C91ABA69B6
:105498007B6A98470028C0F2DE804FF0000BA844D2
:1054A80008EB000507F1300AB345C0F0A7800021DA
:1054B800BA6908467B6A9847E4E65E464FF00008FA
:1054C80007F1300097E75E46D84698E7895C070001
:1054D800F45B07006F57070054580600A8630800DC
:1054E800A45C070004000001E05D0600B04686E702
:1054F80019F8021B594B19F8015C54F82500984219
:1055080002D3574B984216D33B692BB1F86947F041
:1055180099FF00287FF47FAF3B68002B4AD00F2EFD
:105528003ED950494FF489634F4A504848F066FACB
:105538004FF4896182E63B692BB1F86947F082FF35
:1055480000287FF468AFBB6FDB070BD50F2E27D978
:10555800444940F23E43444A444848F04FFA40F236
:105568003E416BE6BB6F58077FF555AFB8F10F0F9B
:1055780009D93F4940F241433B4A3C4848F03EFA8A
:1055880040F241415AE608F1280307F1280208F1E0
:10559800010103EB020808F8105C5FFA81F83AE7AA
:1055A80006F1280307F12802711C9E1806F8205CF2
:1055B800CEB230E7B8F10F0F09D92D4940F24B436D
:1055C800294A2A4848F01AFA40F24B4136E608F1CF
:1055D800280307F1280208F1010003EB020C07F188
:1055E800500308F1020853FA80F00CF8101C5FFA17
:1055F80088F800F8105C0EE7002023E71BF80A3053
:1056080054F8239087F82F30FB6FFBB133F81B80D9
:105618000121BA697B6A07F12F00984700281ADB35
:105628000544B8F1000F06D14846FCF7DAFA00F154
:1056380001081FFA88F841464846BA697B6A9847C4
:10564800002808DB05440BF1010B2DE7D7F87C8017
:10565800DEE7454616E6054614E600BF5458060040
:10566800A8630800475D0700F45B07006F57070051
:10567800665D0700072808B506D949F082FE0923A8
:1056880003604FF0FF3008BD044B03EB4013D3E831
:10569800AF3F002BF1D00020F5E700BF9431002088
:1056A80070B504460D461646FFF7E4FF002809DBEF
:1056B800064B600145B11A185268AA4204D049F055
:1056C80060FE0660002070BD1858FCE78C31002091
:1056D80070B504460E461546FFF7CCFF00280CDBD4
:1056E800074B610103EB4414626832601DB101F19C
:1056F8000C021A442A60585870BD0020FCE700BF0D
:105708008C31002010B500244FF0FF334FF0FF32EA
:1057180014483AF085FB144BD3E8AF2F7AB1013423
:10572800082C03F12003F7D149F02BFE17234FF083
:10573800FF3403600B483AF043FC204610BDD3E821
:10574800EF0F0130C3E8E10F0029F8D107486301E2
:1057580000EB4411C2504A600C3318445BF05AFB0A
:10576800E8E700BFB40C0020943100208C31002001
:1057780010B404461046094B620103EB44149950D7
:10578800606040B1C46834B10C32134410BC40F2BC
:10579800051247F07CBE10BC704700BF8C3100205A
:1057A80030B50D49400100F108030B44D3E8AF2F91
:1057B80082B1541ED3E8EF5F954204D1C3E8EC4FA1
:1057C800BCF1000FF6D1F1D1012A01BF00230A185C
:1057D8000B50536030BD00BF8C310020014B186066
:1057E800704700BF3000002030B5002587B0CDE9F4
:1057F80003010446009503A90548059500F0C0FC7F
:10580800DDE904309842B8BF255407B030BD00BF69
:10581800B9D40400F8B50F4600293BD00668012228
:10582800304647F0B6FE01460446304647F079FE5A
:10583800C3070DD4AF23184A1849194848F0DEF8B1
:105848003946184848F0DAF8AF21134848F0CFF83D
:105858002146304647F07BFE25182946002230466F
:1058680047F05FFE2D1AAC420BD0B7230A4A0E4907
:105878000B4848F0C3F839460C4848F0BFF8B72140
:10588800E3E72146304647F068FE2146BDE8F84088
:1058980047F0A4BFF8BD00BF975D0700B85D0700DB
:1058A8006F570700C95D0700015E0700275E070004
:1058B8002DE9F8430F4606681446B2684B1EB2F548
:1058C800004F34BF042108213B4010D0C7F1000924
:1058D80009EA0709494503F1FF3028BF494618423C
:1058E8000CD11F46DCB900252846BDE8F8838F4255
:1058F80013D82146BDE8F84347F0B2BF2E494FF40C
:10590800A2732E4A2E4848F079F82E4848F076F8C7
:105918004FF4A271294848F06AF89946E2E7B2EBD9
:10592800D40FE0D9E319591A104647F03CFE014656
:10593800304647F092FE80460028D4D0B36809EB81
:10594800C005B3F5004F34BF042308231D44354474
:105958007B1E1D447F423D40A5EB09052946304684
:1059680047F017FE2C44073424F00704A41B804595
:1059780007464FEAE40408D202464146304647F05B
:10598800A6FE4146304647F0E7FE3946304647F026
:10599800DEFD3844844208D239463046224647F074
:1059A80096FE2146304647F0D7FE0122394630465A
:1059B80047F0D3FD98E700BF635E0700975D0700D7
:1059C8006F5707007E5E0700B2F5802F2DE9F04182
:1059D80010D2042A28D843494FF4F973424A43485D
:1059E80048F00CF8424848F009F84FF4F9713E487D
:1059F80047F0FDFF0823D21ACC1D114424F00704F8
:105A080021F00701091B17294FEAD1060ED8394999
:105A180040F2FB13344A354847F0F0FF344847F06A
:105A2800EDFF40F2FB11E2E70423E4E700270460FE
:105A380031463046A660E76047F0BEFD0121421DB1
:105A48008046304647F0AFFD9200D51DED0828444A
:105A5800B0423AD8B8F1FF3F3946A2F1100204F13A
:105A68001000B8BF3A465BF033FD2A463946204657
:105A780047F08BFD3B463A463946204647F05CFDE9
:105A8800A6EB050820463946012247F066FD424646
:105A9800294647F07AFD2B463A462946204647F0E4
:105AA8004BFD3146204647F070FD43463A463146A5
:105AB800204647F041FD31462046012247F04DFD82
:105AC8002946BDE8F04147F047BE0B494FF4037340
